{
  "contractName": "BookMark",
  "abi": [
    {
      "inputs": [],
      "stateMutability": "nonpayable",
      "type": "constructor"
    },
    {
      "inputs": [
        {
          "internalType": "string",
          "name": "_url",
          "type": "string"
        }
      ],
      "name": "set",
      "outputs": [],
      "stateMutability": "nonpayable",
      "type": "function"
    },
    {
      "inputs": [],
      "name": "get",
      "outputs": [
        {
          "internalType": "string[]",
          "name": "",
          "type": "string[]"
        }
      ],
      "stateMutability": "view",
      "type": "function",
      "constant": true
    },
    {
      "inputs": [
        {
          "internalType": "uint256",
          "name": "id",
          "type": "uint256"
        }
      ],
      "name": "getById",
      "outputs": [
        {
          "internalType": "string",
          "name": "",
          "type": "string"
        }
      ],
      "stateMutability": "view",
      "type": "function",
      "constant": true
    },
    {
      "inputs": [
        {
          "internalType": "string",
          "name": "_url",
          "type": "string"
        }
      ],
      "name": "setTabUrl",
      "outputs": [],
      "stateMutability": "nonpayable",
      "type": "function"
    },
    {
      "inputs": [],
      "name": "getTabUrls",
      "outputs": [
        {
          "internalType": "string[]",
          "name": "",
          "type": "string[]"
        }
      ],
      "stateMutability": "view",
      "type": "function",
      "constant": true
    }
  ],
  "bytecode": "0x608060405234801561001057600080fd5b50600080600181540180825580915050600190039060005260206000200160006040518060400160405280600f81526020017f7777772e6578616d706c652e636f6d00000000000000000000000000000000008152509091909150908051906020019061007e929190610084565b50610187565b82805461009090610156565b90600052602060002090601f0160209004810192826100b257600085556100f9565b82601f106100cb57805160ff19168380011785556100f9565b828001600101855582156100f9579182015b828111156100f85782518255916020019190600101906100dd565b5b509050610106919061010a565b5090565b5b8082111561012357600081600090555060010161010b565b5090565b7f4e487b7100000000000000000000000000000000000000000000000000000000600052602260045260246000fd5b6000600282049050600182168061016e57607f821691505b60208210810361018157610180610127565b5b50919050565b610926806101966000396000f3fe608060405234801561001057600080fd5b50600436106100575760003560e01c80631b55fc7d1461005c5780634ed3885e146100785780636d4ce63c14610094578063ec27725a146100b2578063f4f4d237146100d0575b600080fd5b610076600480360381019061007191906105dd565b610100565b005b610092600480360381019061008d91906105dd565b61013f565b005b61009c61017e565b6040516100a99190610770565b60405180910390f35b6100ba610257565b6040516100c79190610770565b60405180910390f35b6100ea60048036038101906100e591906107c8565b610330565b6040516100f7919061083f565b60405180910390f35b60018190806001815401808255809150506001900390600052602060002001600090919091909150908051906020019061013b9291906103e0565b5050565b60008190806001815401808255809150506001900390600052602060002001600090919091909150908051906020019061017a9291906103e0565b5050565b60606000805480602002602001604051908101604052809291908181526020016000905b8282101561024e5783829060005260206000200180546101c190610890565b80601f01602080910402602001604051908101604052809291908181526020018280546101ed90610890565b801561023a5780601f1061020f5761010080835404028352916020019161023a565b820191906000526020600020905b81548152906001019060200180831161021d57829003601f168201915b5050505050815260200190600101906101a2565b50505050905090565b60606001805480602002602001604051908101604052809291908181526020016000905b8282101561032757838290600052602060002001805461029a90610890565b80601f01602080910402602001604051908101604052809291908181526020018280546102c690610890565b80156103135780601f106102e857610100808354040283529160200191610313565b820191906000526020600020905b8154815290600101906020018083116102f657829003601f168201915b50505050508152602001906001019061027b565b50505050905090565b606060008281548110610346576103456108c1565b5b90600052602060002001805461035b90610890565b80601f016020809104026020016040519081016040528092919081815260200182805461038790610890565b80156103d45780601f106103a9576101008083540402835291602001916103d4565b820191906000526020600020905b8154815290600101906020018083116103b757829003601f168201915b50505050509050919050565b8280546103ec90610890565b90600052602060002090601f01602090048101928261040e5760008555610455565b82601f1061042757805160ff1916838001178555610455565b82800160010185558215610455579182015b82811115610454578251825591602001919060010190610439565b5b5090506104629190610466565b5090565b5b8082111561047f576000816000905550600101610467565b5090565b6000604051905090565b600080fd5b600080fd5b600080fd5b600080fd5b6000601f19601f8301169050919050565b7f4e487b7100000000000000000000000000000000000000000000000000000000600052604160045260246000fd5b6104ea826104a1565b810181811067ffffffffffffffff82111715610509576105086104b2565b5b80604052505050565b600061051c610483565b905061052882826104e1565b919050565b600067ffffffffffffffff821115610548576105476104b2565b5b610551826104a1565b9050602081019050919050565b82818337600083830152505050565b600061058061057b8461052d565b610512565b90508281526020810184848401111561059c5761059b61049c565b5b6105a784828561055e565b509392505050565b600082601f8301126105c4576105c3610497565b5b81356105d484826020860161056d565b91505092915050565b6000602082840312156105f3576105f261048d565b5b600082013567ffffffffffffffff81111561061157610610610492565b5b61061d848285016105af565b91505092915050565b600081519050919050565b600082825260208201905092915050565b6000819050602082019050919050565b600081519050919050565b600082825260208201905092915050565b60005b8381101561068c578082015181840152602081019050610671565b8381111561069b576000848401525b50505050565b60006106ac82610652565b6106b6818561065d565b93506106c681856020860161066e565b6106cf816104a1565b840191505092915050565b60006106e683836106a1565b905092915050565b6000602082019050919050565b600061070682610626565b6107108185610631565b93508360208202850161072285610642565b8060005b8581101561075e578484038952815161073f85826106da565b945061074a836106ee565b925060208a01995050600181019050610726565b50829750879550505050505092915050565b6000602082019050818103600083015261078a81846106fb565b905092915050565b6000819050919050565b6107a581610792565b81146107b057600080fd5b50565b6000813590506107c28161079c565b92915050565b6000602082840312156107de576107dd61048d565b5b60006107ec848285016107b3565b91505092915050565b600082825260208201905092915050565b600061081182610652565b61081b81856107f5565b935061082b81856020860161066e565b610834816104a1565b840191505092915050565b600060208201905081810360008301526108598184610806565b905092915050565b7f4e487b7100000000000000000000000000000000000000000000000000000000600052602260045260246000fd5b600060028204905060018216806108a857607f821691505b6020821081036108bb576108ba610861565b5b50919050565b7f4e487b7100000000000000000000000000000000000000000000000000000000600052603260045260246000fdfea2646970667358221220bf7a8d3da5845cc0ceca3073117102f403f07ced3f1c4fb478f6c622a9edddf164736f6c634300080d0033",
  "immutableReferences": {},
  "source": "// SPDX-License-Identifier: MIT\n\npragma solidity >=0.5.0 <0.9.0;\n\ncontract BookMark {\n    string[] urls;\n    string[] tabUrls;\n\n    constructor() {\n        urls.push(\"www.example.com\");\n    }\n\n    function set(string memory _url) public {\n        urls.push(_url);\n    }\n    \n\n    function get() public view returns(string[] memory) {\n     return urls;\n    }\n\n    function getById(uint id) public view returns (string memory) {\n        return urls[id];\n    }\n\n    function setTabUrl(string memory _url) public {\n        tabUrls.push(_url);\n    }\n\n    function getTabUrls() public view returns(string[] memory) {\n        return tabUrls;\n    }\n\n\n}",
  "sourcePath": "/home/webcloud/apps/work/side-projects/smart-chrome-extension/contracts/BookMark.sol",
  "compiler": {
    "name": "solc",
    "version": "0.8.13+commit.abaa5c0e.Emscripten.clang"
  },
  "schemaVersion": "3.4.7",
  "updatedAt": "2022-05-05T16:46:57.154Z",
  "networkType": "ethereum",
  "devdoc": {
    "kind": "dev",
    "methods": {},
    "version": 1
  },
  "userdoc": {
    "kind": "user",
    "methods": {},
    "version": 1
  }
}